:1000CB002030080000000000000000FF080808FFB7
:1000DB00000E15151508007E0102007E0102000EB0
:1000EB0011110E007D000000000000000000000058
:0300FB0000000002
:10008F00E4F539F53A120163E4F538E538253924FA
:10009F0008F8E6FD7C00AF3812012C0538E538C3AF
:1000AF00940840E7053AE53AB40ADDE4F53A053934
:0C00BF00E539D3942840D1E4F53980CC19
:10014E00EF1FAC0670011E4C600A7D027CEFDCFED8
:04015E00DDFC80EC58
:01016200227A
:05016300C2B6C2B52286
:0200FF00AD074B
:10010100E4FB7E007480A803088006CEA2E713CE2C
:1001110013D8F8FFEDF582EF558224FF92B4D2B6E1
:0A012100C2B60BBB08DCD2B5C2B5B4
:01012B0022B1
:10012C00AA07AF051200FFAF02A80774800880026F
:10013C00C313D8FCF4F5807F017E0012014E75804C
:02014C00FF2290
:03000000020003F8
:0C000300787FE4F6D8FD75813A02004ACF
:10000F0002008FE493A3F8E493A34003F68001F278
:10001F0008DFF48029E493A3F85407240CC8C333F2
:10002F00C4540F4420C8834004F456800146F6DFC1
:10003F00E4800B01020408102040809000CBE47E86
:10004F00019360BCA3FF543F30E509541FFEE493B6
:10005F00A360010ECF54C025E060A840B8E493A37D
:10006F00FAE493A3F8E493A3C8C582C8CAC583CAA8
:10007F00F0A3C8C582C8CAC583CADFE9DEE780BE60
:0100FE000001
:00000001FF
