:1003C50050617373776F72643A0020004F4B2120A0
:1003D5002020002047656E7368696E20696D706125
:1003E5006374200020202020207374617274212002
:1003F50020202020004552524F522100202020204D
:1004050020200020202020002020202020204259CC
:10041500452120202020202000202020206A6961FD
:0A042500206E61212020202020001D
:1001C0001205961200038E0E8F0FE50F6410450E78
:1001D000701BE509450870157BFF7A0379C57D0121
:1001E0007F0112050D75080075090180D6E50F45E0
:1001F0000E60D0E5096401450870C8E50F640B4541
:100200000E702FE50B450A60BAE50B2409FD7BFF54
:100210007A0379CF7F0112050DE50B150B700215DE
:100220000AAE0CAF0D7C007D0A1203708E0C8F0D90
:100230008091D3E50F940AE50E94005040C3E50B7E
:100240009404E50A94005035AE0CAF0D7C007D0A95
:1002500012035E8E0C8F0DAE0EAF0F120370ED25E4
:100260000DF50DEC350CF50C050BE50B7002050AD0
:100270002409FD7B2A7F011205CF0201C3E50F642B
:100280000C450E707AE50D64B87004E50C64227BB1
:10029000FF70347A0379D17D017F0212050DE4F5F8
:1002A0000CF50DF50AF50B7FE87E031205817BFF47
:1002B0007A0379D87D017F0112050D7BFF7A0379DE
:1002C000E97D017F0280327A0379FA7D017F021293
:1002D000050DE4F50CF50DF50AF50B7FE87E03122C
:1002E00005817BFF7A0479017D017F0212050D7B78
:1002F000FF7A0479087D0A7F0112050D0201C3E52A
:100300000F640D450E60030201C37BFF7A04790D73
:100310007D017F0112050D7BFF7A04791E7D017F2F
:100320000212050D7FDC7E05120581E4F508F50952
:0103300022AA
:10058100EF1FAC0670011E4C600A7D027CEFDCFEA1
:04059100DDFC80EC21
:010595002243
:0605AA00C2A58F80D2A75C
:0805B0007F027EEFDEFEDFFC9E
:0105B8002220
:0A05C500C2A61205AAC2A70205B0E3
:10053000CFCDCFCECCCE1203707C007D0A120370DB
:04054000ED2430FF77
:0A054400D2A61205AAC2A70205B054
:10056B00AE07BE0104ED148006BE0209ED243F4424
:06057B0080FF1205C522FD
:100596007F381205C57F0C1205C57F061205C57F7B
:0405A600010205C584
:0A05CF00AC0312056BAF04020544F3
:06050D008B2A8A2B892CC9
:1005130012056BE4FDAB2AAA2BA92C8D82758300EF
:0C052300120331FF60061205440D80E950
:01052F0022A9
:0C04DA007F0AEA24FFFDE434FFFC7E00F2
:0804E6008E268F278C288D293A
:1004EE007F017E00E4FBEBC39529E5286480F87458
:0E04FE008098500AAC26AD2712035E0B80E8F2
:01050C0022CC
:04054E008A198B1A61
:1005520012056BAA1BEAD39400400D1204DAAC19FF
:08056200AD1A1205301A80EDFC
:01056A00226E
:10042F0012056BC3EA64809480400B7F2B12054446
:10043F008A158B16800E7F2D120544C3E49BF5168B
:10044F00E49AF515AA14EAD39400400D1204DAAC1D
:09045F0015AD161205301A80EDEE
:010468002271
:040469008A1E8B1F3D
:10046D0012056BAA20EAD3940040297F101204DCF8
:10047D00AC1EAD1FCFCDCFCECCCE120370EF540F2F
:10048D00FEC3940AEE5004243080022437FF120577
:04049D00441A80D1AC
:0104A1002238
:0404A2008A238B24FA
:1004A60012056BAA25EAD394004028EA24FFFDE44E
:1004B60034FFFC7F027E001204E6AC23AD24CFCDD0
:1004C600CFCECCCE120370EF54012430FF12054478
:0304D6001A80D2B7
:0104D9002200
:10000300E4F52AF52B7590FFC2932097167F14FE13
:100013001205813097FD7F147E00120581752A0039
:10002300752B012096177F147E001205813096FDF3
:100033007F147E00120581752A00752B0520951704
:100043007F147E001205813095FD7F147E0012051A
:1000530081752A00752B092094177F147E001205E1
:10006300813094FD7F147E00120581752A00752B63
:100073000D7590FFC2922097177F147E00120581A1
:100083003097FD7F147E00120581752A00752B02BF
:100093002096177F147E001205813096FD7F147E13
:1000A30000120581752A00752B062095177F147E93
:1000B300001205813095FD7F147E00120581752A9B
:1000C30000752B0A2094177F147E0012058130944B
:1000D300FD7F147E00120581752A00752B0E759025
:1000E300FFC2912097177F147E001205813097FD80
:1000F3007F147E00120581752A00752B0320961745
:100103007F147E001205813096FD7F147E00120558
:1001130081752A00752B072095177F147E00120521
:10012300813095FD7F147E00120581752A00752BA1
:100133000B2094177F147E001205813094FD7F14E9
:100143007E00120581752A00752B0F7590FFC290F2
:100153002097177F147E001205813097FD7F147E50
:1001630000120581752A00752B042096177F147ED3
:10017300001205813096FD7F147E00120581752AD9
:1001830000752B082095177F147E0012058130958A
:10019300FD7F147E00120581752A00752B0C2094B7
:1001A300177F147E001205813094FD7F147E0012A8
:0C01B3000581752A00752B10AE2AAF2BB9
:0101BF00221D
:030000000205B93D
:0C05B900787FE4F6D8FD75812C0201C0AB
:10033100BB010CE58229F582E5833AF583E0225081
:1003410006E92582F8E622BBFE06E92582F8E222CB
:0D035100E58229F582E5833AF583E49322E5
:10035E00EF8DF0A4A8F0CF8CF0A428CE8DF0A42EB3
:02036E00FE226D
:10037000BC000BBE0029EF8DF084FFADF022E4CC71
:10038000F875F008EF2FFFEE33FEEC33FCEE9DEC3A
:10039000984005FCEE9DFE0FD5F0E9E4CEFD22ED80
:1003A000F8F5F0EE8420D21CFEADF075F008EF2FCA
:1003B000FFED33FD4007985006D5F0F222C398FDBB
:0503C0000FD5F0EA2258
:00000001FF
