:10000E001203B71204218F34E534B4010CE53370BA
:10001E00047F0180027F008F33E534B40209E4F5DA
:10002E0031F530F532F533E53464037033E531FDE7
:10003E007C00E4FF12035A7F057E001203E4E530D4
:10004E00FD7C007F0112035A7F057E001203E4E55A
:10005E0032FD7C007F0212035A7F057E001203E4FC
:10006E00E534B40415E4FF1202B18F317F011202A0
:10007E00B18F307F021202B18F32E53175F00A84F2
:10008E00FD7C007F0112040FE53175F00A84E5F066
:10009E00FD7C007F0212040F7D0B7C007F03120497
:1000AE000FE53075F00A84FD7C007F0412040FE525
:1000BE003075F00A84E5F0FD7C007F0512040F7D9B
:1000CE000B7C007F0612040FE53275F00A84FD7C6E
:1000DE00007F0712040FE53275F00A84E5F0FD7C0F
:0900EE00007F0812040F0200114A
:10033300E53360220532E532C394644019E4F532B3
:100343000530E530943C400EE4F5300531E5319459
:070353003C4003E4F53122F8
:03000B000200F7F9
:1000F700C0E0C0F0C083C082C0D075D000C000C0CF
:0D01070001C002C003C004C005C006C0074F
:10011400758A18758CFC052BE52B7002052AC3948F
:1001240014E52A94004009752A00752B0012027800
:10013400052DE52D7002052CC39402E52C94004096
:1001440009752C00752D0012039C052FE52F7002F4
:10015400052EC3940AE52E94004009752E00752FD0
:04016400001203334F
:10016800D007D006D005D004D003D002D001D000EB
:0B017800D0D0D082D083D0F0D0E03295
:1003E400EF1FAC0670011E4C600A7D027CEFDCFE40
:0403F400DDFC80ECC0
:0103F80022E2
:05042100E4AF37F537E0
:0104260022B3
:1003CE00E4FF20B1010F20B0027F0220B2027F03B2
:0503DE0020B3027F04C2
:0103E30022F7
:100278008535361203CE8F35E536B40107E535707E
:1002880003753701E536B40207E5357003753702A3
:10029800E536B40307E5357003753703E536B4046E
:0802A80007E53570037537040A
:0102B000222B
:1002E1000909000A0A0A0A0A0A0A0A1812003F0042
:1002F10006005B004F0066006D007D0007007F0077
:080301006F000000400108013B
:09040F00AE0574092FF8A60622BF
:10020F00E4F580EF14B40800505490022775F00302
:10021F00A4C58325F0C5837302026702025F020241
:10022F005702024F02024B02024702024302023FF1
:10023F00C2A4800EC2A48012C2A48016C2A4801AC7
:10024F00D2A4C2A3C2A28016D2A4C2A3D2A2800EED
:10025F00D2A4D2A3C2A28006D2A4D2A3D2A2ED2549
:09026F00E02412F808E6F58022F3
:10039C0074092508F8E6FD7C00AF0812020F050869
:0A03AC00E508D3940840037508012A
:0103B6002224
:1003B7005389F0438901758A18758CFCC28DD28CDC
:0703C700D2A9D2AFC2B92296
:10035A008F388C398D3A1204187FA012030A1203BF
:10036A00F9AF3812030A1203F9AF3A12030A120359
:04037A00F902000381
:0202B1008F3884
:1002B3001204187FA012030A1203F9AF3812030ABB
:1002C3001203F91204187FA112030A1203F912038D
:0D02D3007E8F397F01120405120003AF3940
:0102E00022FB
:09041800D2A0D2A1C2A0C2A1220F
:07000300C2A0D2A1D2A0228D
:02030A00AD073D
:10030C00E4FB7E007480A803088006CEA2E713CE1F
:10031C0013D8F8FFEDF582EF558224FF92A0D2A1FD
:06032C00C2A10BBB08DCBE
:0103320022A8
:10037E00E4FFD2A0FED2A130A00DA80674800880A2
:0D038E0002C313D8FC4207C2A10EBE08E84E
:01039B00223F
:0A040500EF24FF92A0D2A1C2A122B1
:0B03F900D2A0D2A1A2A0E433FFC2A159
:0104040022D5
:0300000002018377
:0C018300787FE4F6D8FD75813A0201CACD
:10018F0002000EE493A3F8E493A34003F68001F278
:10019F0008DFF48029E493A3F85407240CC8C33371
:1001AF00C4540F4420C8834004F456800146F6DF40
:1001BF00E4800B01020408102040809002E1E47EED
:1001CF00019360BCA3FF543F30E509541FFEE49335
:1001DF00A360010ECF54C025E060A840B8E493A3FC
:1001EF00FAE493A3F8E493A3C8C582C8CAC583CA27
:1001FF00F0A3C8C582C8CAC583CADFE9DEE780BEDF
:0103090000F3
:00000001FF
