:1002640012036912037B120330EF604B1203788F81
:1002740028E528B44503E4F529E528B40C037529D9
:1002840001E528B41803752902E528B45E0375292D
:1002940003E5297004FF12037EE529B401057F32CA
:1002A40012037EE529B402057F4B12037EE529B4CF
:1002B40003057F6412037EE529FD7C007F0812019B
:0302C400F480A320
:10000600EF1FAC0670011E4C600A7D027CEFDCFE21
:04001600DDFC80ECA1
:01001A0022C3
:1002F2001408003F0006005B004F0066006D007DA1
:060302000007007F006F00
:1001F400EF14B40800505490020975F003A4C583A9
:1002040025F0C5837302022102022502022902029B
:100214002D020231020239020241020249C2A480C3
:100224000EC2A48012C2A48016C2A4801AD2A4C290
:10023400A3C2A28016D2A4C2A3D2A2800ED2A4D2F8
:10024400A3C2A28006D2A4D2A3D2A2ED25E02408A0
:10025400F808E6F5807F017E00120006E4F58022AE
:1003090053890F438910758B9C758DFFC28FD28ECF
:07031900D2ABD2AFC2BB2240
:0B034A00D288C289D2A8D2AFD2B8225C
:0603690012032002034A0A
:0D033000E5236006E4F5237F01227F002213
:0D033D00E5216006E4F5217F01227F00220A
:03037500AF202294
:03037800AF1F2292
:0300030002001EDA
:10001E00C0E0C0F0C083C082C0D075D000C000C0A8
:10002E0001C002C003C004C005C006C007E51C70B5
:10003E000CFFFE1203557F0112036F8049E51C640D
:10004E000170491203608E1D8F1EE4FFFE120355D0
:10005E00D3E51E94A6E51D942E4010E51E948EE564
:10006E001D94325006751C0202014DD3E51E948C70
:10007E00E51D94264010E51E9474E51D942A500645
:10008E00752101020145751C0102014DE51C64023A
:10009E00600302014D1203608E1D8F1EE4FFFE12DF
:1000AE000355D3E51E9414E51D9402402BE51E94D2
:1000BE00FCE51D94055021E522131313541F24242F
:1000CE00F8C000E6FFE5225407FEF874010880022E
:1000DE00C333D8FCF45F8033D3E51E9426E51D941C
:1000EE0006402FE51E940EE51D940A5025E52213B9
:1000FE001313541F2424F8C000E6FFE5225407FE14
:10010E00F87401088002C333D8FC4FD000F60522E4
:10011E008006752200751C01E522C39420402075CF
:10012E002200E525F4B5240FE527F4B5260985242C
:10013E002085261F752301E4FF12036F751C00D066
:10014E0007D006D005D004D003D002D001D000D005
:0A015E00D0D082D083D0F0D0E03280
:100320005389F0438901E4F58AF58CC28DC28C2291
:0B035500AD07AC068C8CAF058F8A2230
:09036000AF8CEFFEAD8AEDFF2227
:06036F00EF24FF928C2236
:03037B0002030971
:03037E008F2A22A1
:03001B000202C717
:1002C700C0E0C0F0C0D0758B9C758DFF052BE52B6A
:1002D70075F0648485F02BE52BC3952A5004D290E2
:0B02E7008002C290D0D0D0F0D0E032F6
:0300000002016892
:0C016800787FE4F6D8FD75812B0201AF12
:10017400020264E493A3F8E493A34003F68001F23B
:1001840008DFF48029E493A3F85407240CC8C3338C
:10019400C4540F4420C8834004F456800146F6DF5B
:1001A400E4800B01020408102040809002F2E47EF7
:1001B400019360BCA3FF543F30E509541FFEE49350
:1001C400A360010ECF54C025E060A840B8E493A317
:1001D400FAE493A3F8E493A3C8C582C8CAC583CA42
:1001E400F0A3C8C582C8CAC583CADFE9DEE780BEFA
:0103080000F4
:00000001FF
