:10015900E4FDFC7F08FE12008F1200F88F28E528C5
:1001690060F7FD7C007F087E0012008F7F647E00AF
:050179001201A280E468
:1001C400EF1FAC0670011E4C600A7D027CEFDCFE62
:0401D400DDFC80ECE2
:0101D8002204
:1000F800E4F52920B1137F14FE1201C430B1FD7F4D
:10010800147E001201C475290120B0147F147E00EA
:100118001201C430B0FD7F147E001201C47529029B
:1001280020B2147F147E001201C430B2FD7F147E09
:10013800001201C475290320B3147F147E00120134
:10014800C430B3FD7F147E001201C4752904AF29A1
:010158002284
:10017E00202008003F0006005B004F0066006D0067
:10018E007D0007007F006F0077007C0039005E0065
:03019E0079007174
:10008F00EE705BEF14B4080050549000A775F003A6
:10009F00A4C58325F0C583730200BF0200C302000D
:1000AF00C70200CB0200CF0200D70200DF0200E739
:1000BF00C2A4800EC2A48012C2A48016C2A4801A49
:1000CF00D2A4C2A3C2A28016D2A4C2A3D2A2800E6F
:1000DF00D2A4D2A3C2A28006D2A4D2A3D2A2ED25CB
:0900EF00E02408F808E6F580227F
:0501D900007FF7DFFECE
:0101DE0022FE
:0401A200AD07AC06F3
:1001A600E4FBFAED25E0FFEC33FEC3EB9FEA9E503D
:0D01B6000CB2A51201D90BBB00010A80E6B6
:0101C3002219
:03000000020003F8
:0C000300787FE4F6D8FD75812902004AE0
:10000F00020159E493A3F8E493A34003F68001F2AD
:10001F0008DFF48029E493A3F85407240CC8C333F2
:10002F00C4540F4420C8834004F456800146F6DFC1
:10003F00E4800B010204081020408090017EE47ED2
:10004F00019360BCA3FF543F30E509541FFEE493B6
:10005F00A360010ECF54C025E060A840B8E493A37D
:10006F00FAE493A3F8E493A3C8C582C8CAC583CAA8
:10007F00F0A3C8C582C8CAC583CADFE9DEE780BE60
:0101A100005D
:00000001FF
