:0300000002007784
:0C007700787FE4F6D8FD758107020003D5
:04005E007F147E008D
:10006200EF1FAC0670011E4C600A7D027CEFDCFEC5
:04007200DDFC80EC45
:010076002267
:10000300E4FBFA75A0FE20B12612005E30B1FD12AA
:10001300005E0BBB00010AEB64084A7002FAFBAFF7
:1000230003A8077401088002C333D8FCF4F5A020A9
:10003300B0D412005E30B0FD12005EEB4A7005FAD8
:100043007B078005EB1B70011AAF03A80774010837
:0B0053008002C333D8FCF4F5A080ABA2
:00000001FF
