:10035800414444522020434D4420204E554D003006
:0E036800302020202030302020203030300087
:1001E4001203C61204687BFF7A0379587D017F01EC
:1001F4001203357BFF7A0379677D017F0212033591
:10020400120409EF7006120416EF60F412046E8FE4
:100214002B1204718F2AE52BFB7A007518027D01DD
:100224007F02120291E52AFB7A007518027D057F90
:1002340002120291E52AB415021529E52AB409022D
:100244000529E529FB7A007518037D0C7F0212034A
:030254009480ADE6
:1003B100EF1FAC0670011E4C600A7D027CEFDCFE73
:0403C100DDFC80ECF3
:0103C5002215
:0603FA00C2A58F80D2A70E
:080400007F027EEFDEFEDFFC4F
:0104080022D1
:0A044500C2A61203FAC2A7020400C7
:10037600CFCDCFCECCCE12018F7C007D0A12018F5D
:04038600ED2430FF33
:0A038A00D2A61203FAC2A702040073
:1003C6007F381204457F0C1204457F061204457FD0
:0403D60001020445D7
:1003DA00EDBF0103148002243F4480FF120445222A
:0A044F00AC031203DAAF0402038AC3
:060335008B148A158916E5
:10033B001203DAE4FDAB14AA15A9168D827583009E
:0C034B00120150FF600612038A0D80E9C9
:010357002283
:0C0302007F0AEA24FFFDE434FFFC7E00CB
:08030E008E198F1A8C1B8D1C47
:100316007F017E00E4FBEBC3951CE51B6480F8744B
:0E0326008098500AAC19AD1A12017D0B80E8C8
:0103340022A6
:040394008A168B1723
:100398001203DAAA18EAD39400400D120302AC162D
:0803A800AD171203761A80ED77
:0103B000222A
:100257001203DAC3EA64809480400B7F2B12038A6F
:100267008A228B23800E7F2D12038AC3E49BF523FA
:10027700E49AF522AA21EAD39400400D120302ACB6
:0902870022AD231203761A80ED6A
:01029000224B
:040291008A168B1727
:100295001203DAAA18EAD3940040297F1012030446
:1002A500AC16AD17CFCDCFCECCCE12018FEF540FFC
:1002B500FEC3940AEE5004243080022437FF120353
:0402C5008A1A80D140
:0102C9002212
:0402CA008A268B27CE
:1002CE001203DAAA28EAD394004028EA24FFFDE4B8
:1002DE0034FFFC7F027E0012030EAC26AD27CFCD7D
:1002EE00CFCECCCE12018FEF54012430FF12038AF1
:0302FE001A80D291
:0103010022D9
:0B042F00D288C289D2A8D2AFD2B82276
:1003EA005389F0438901E4F58AF58CC28DC28C22C7
:0B043A00AD07AC068C8CAF058F8A224A
:09045900AF8CEFFEAD8AEDFF222D
:06046200EF24FF928C2242
:060468001203EA02042F5A
:0D040900E50F6006E4F50F7F01227F002261
:0D041600E50D6006E4F50D7F01227F002258
:03046E00AF0C22AE
:03047100AF0B22AC
:03000300020006F2
:10000600C0E0C0F0C083C082C0D075D000C000C0C0
:1000160001C002C003C004C005C006C007E50870E1
:100026000CFFFE12043A7F011204628049E508645F
:100036000170491204598E098F0AE4FFFE12043A30
:10004600D3E50A94A6E509942E4010E50A948EE5B8
:100056000994325006750802020135D3E50A948CDC
:10006600E50994264010E50A9474E509942A500699
:10007600750D0102012D750801020135E5086402BE
:1000860060030201351204598E098F0AE4FFFE123D
:10009600043AD3E50A9414E5099402402BE50A9440
:1000A600FCE50994055021E50E131313541F241083
:1000B600F8C000E6FFE50E5407FEF874010880025A
:1000C600C333D8FCF45F8033D3E50A9426E509945C
:1000D60006402FE50A940EE509940A5025E50E130D
:1000E6001313541F2410F8C000E6FFE50E5407FE54
:1000F600F87401088002C333D8FC4FD000F6050E11
:100106008006750E00750801E50EC3942040207523
:100116000E00E511F4B5100FE513F4B512098510BC
:100126000C85120B750F01E4FF120462750800D0EE
:1001360007D006D005D004D003D002D001D000D01D
:0A014600D0D082D083D0F0D0E03298
:03000000020423D4
:0C042300787FE4F6D8FD75812B0201E41F
:10015000BB010CE58229F582E5833AF583E0225064
:1001600006E92582F8E622BBFE06E92582F8E222AE
:0D017000E58229F582E5833AF583E49322C8
:10017D00EF8DF0A4A8F0CF8CF0A428CE8DF0A42E96
:02018D00FE2250
:10018F00BC000BBE0029EF8DF084FFADF022E4CC54
:10019F00F875F008EF2FFFEE33FEEC33FCEE9DEC1D
:1001AF00984005FCEE9DFE0FD5F0E9E4CEFD22ED63
:1001BF00F8F5F0EE8420D21CFEADF075F008EF2FAD
:1001CF00FFED33FD4007985006D5F0F222C398FD9E
:0501DF000FD5F0EA223B
:00000001FF
