:0300000002010DED
:0C010D00787FE4F6D8FD75810C0200C379
:1000C30075A0FE1200E112000E8F0AE50A60F7B474
:0E00D3000102050BE50BB402EDE4F50B80E82D
:03000B0002006F81
:0B006F00C0E0C0D075D000C000C0078A
:10007A00758A18758CFC0509E50970020508C39490
:10008A00F4E50894014029750800750900E50B702C
:10009A000DAFA07801EF08800123D8FDF5A0E50B8C
:1000AA00B4010DAFA07801EF08800103D8FDF5A0D7
:0900BA00D007D000D0D0D0E03214
:1000E1005389F0438901758A18758CFCC28DD28CB5
:0700F100D2A9D2AFC2B9226F
:10000E00E4F50C20B1137F14FE1200F830B1FD7F21
:10001E00147E001200F8750C0120B0147F147E00BF
:10002E001200F830B0FD7F147E001200F8750C023D
:10003E0020B2147F147E001200F830B2FD7F147EC1
:10004E00001200F8750C0320B3147F147E0012000A
:10005E00F830B3FD7F147E001200F8750C04AF0C5F
:01006E00226F
:1000F800EF1FAC0670011E4C600A7D027CEFDCFE2F
:04010800DDFC80ECAE
:01010C0022D0
:00000001FF
