:10009A000D040D041404140416041604140812049E
:1000AA001204110411040F040F040D08140414049B
:1000BA0012041204110411040F0814041404120483
:1000CA001204110411040F080D040D04140414047D
:1000DA0016041604140812041204110411040F045D
:0500EA000F040D08FFEA
:1000EF00204A0A0000F88CF8F3F95BF9B8FA15FA10
:1000FF0067FAB9FB04FB4BFB90FBCFFC10FC44FCF5
:10010F0079FCACFCDCFD09FD34FD5CFD82FDA6FD38
:10011F00C8FDE8FE06FE22FE3DFE56FE6EFE85FE83
:0D012F009AFEAEFEC1FED3FEE4FEF4FF0317
:100171001201A2E50890009A93FFF460208F09050F
:1001810008E5089375F03EA4FFAEF01201B9050829
:10019100C28C7F057E001201B9D28C80D6C28C80C0
:0101A100FE5F
:03000B0002013DB2
:10013D00C0E0C0D075D000C000C006E50925E024A0
:10014D000AF8E6FE08E64E6012E50925E0240AF8F5
:10015D00E6FE08E6F58AEEF58CB2A5D006D000D005
:04016D00D0D0E032DC
:1001B900EF1FAC0670011E4C600A7D027CEFDCFE6D
:0401C900DDFC80ECED
:0101CD00220F
:1001A2005389F0438901758A18758CFCC28DD28CF3
:0701B200D2A9D2AFC2B922AD
:0300000002000EED
:0C000E00787FE4F6D8FD758153020055A0
:10001A00020171E493A3F8E493A34003F68001F28A
:10002A0008DFF48029E493A3F85407240CC8C333E7
:10003A00C4540F4420C8834004F456800146F6DFB6
:10004A00E4800B01020408102040809000EFE47E57
:10005A00019360BCA3FF543F30E509541FFEE493AB
:10006A00A360010ECF54C025E060A840B8E493A372
:10007A00FAE493A3F8E493A3C8C582C8CAC583CA9D
:10008A00F0A3C8C582C8CAC583CADFE9DEE780BE55
:01013C0000C2
:00000001FF
