:1009F700202000200020202D20202D2020005765BA
:0D0A0700656B3A0020203A20203A202000A4
:1006B70012059EE518FB3395E0FA750C027D017F64
:1006C70001120A14E519FB3395E0FA750C027D0453
:1006D7007F01120A14E51AFB3395E0FA750C027DC7
:1006E700077F01120A14E51BFB3395E0FA750C022C
:1006F7007D017F02120A14E51CFB3395E0FA750CA5
:10070700027D047F02120A14E51DFB3395E0FA759A
:100717000C027D077F02120A14E51EFB3395E0FAEF
:0A072700750C017D0F7F01020A141A
:10000E00E524B4020B0521E52175F0078485F02166
:10001E00E5246403600302011474182521F806D345
:10002E00E518648094E34003E4F518D3E519648081
:10003E00948C4003751901E51964016023E5196478
:10004E0003601DE51964056017E51964076011E585
:10005E00196408600BE519640A6005E519B40C0B08
:10006E00D3E51A6480949F406D8068E5196404603E
:10007E0011E5196406600BE51964096005E519B40C
:10008E000B0BD3E51A6480949E404B8046E51964B1
:10009E00027043E51875F0041204B2AFF0EF700D64
:1000AE00E51875F0641204B2AFF0EF7012AF18EFEE
:1000BE003395E0FE7C017D90120568ED4C700BD3FC
:1000CE00E51A6480949D400E8009D3E51A648094ED
:1000DE009C4003751A01D3E51B648094974003E49A
:1000EE00F51BD3E51C648094BB4003E4F51CD3E5FB
:1000FE001D648094BB4003E4F51DD3E51E6480941B
:10010E00874003751E01E5246404600302021B741C
:10011E00182521F816C3E5186480948050037518CD
:10012E0063C3E51964809481500375190CE5196455
:10013E00016023E5196403601DE51964056017E588
:10014E001964076011E5196408600BE519640A600B
:10015E0005E519B40C17C3E51A6480948150037534
:10016E001A1FD3E51A6480949F4072806DE519645E
:10017E00046011E5196406600BE51964096005E574
:10018E0019B40B17C3E51A648094815003751A1EB7
:10019E00D3E51A6480949E4044803FE51964027052
:1001AE003CE51875F0041204B2AFF0EF7017C3E51A
:1001BE001A648094815003751A1DD3E51A648094D5
:1001CE009D401A8015C3E51A648094815003751AF8
:1001DE001CD3E51A6480949C4003751A01C3E51B79
:1001EE00648094805003751B17C3E51C6480948053
:1001FE005003751C3BC3E51D648094805003751D30
:10020E003BC3E51E648094815003751E07E5217083
:10021E0013E523700F7BFF7A0979F77D017F0112B9
:10022E0009B68011E518FB3395E0FA750C027D01D5
:10023E007F01120A14E521B40113E523700F7BFF31
:10024E007A0979F77D047F011209B68011E519FB51
:10025E003395E0FA750C027D047F01120A14E52134
:10026E00B40213E523700F7BFF7A0979F77D077FC0
:10027E00011209B68011E51AFB3395E0FA750C02EE
:10028E007D077F01120A14E521B40313E523700FD5
:10029E007BFF7A0979F77D017F021209B68011E59D
:1002AE001BFB3395E0FA750C027D017F02120A14D6
:1002BE00E521B40413E523700F7BFF7A0979F77DEE
:1002CE00047F021209B68011E51CFB3395E0FA7526
:1002DE000C027D047F02120A14E521B40513E523F6
:1002EE00700F7BFF7A0979F77D077F021209B680BE
:1002FE0011E51DFB3395E0FA750C027D077F0212A6
:10030E000A14E521B40611E523700D7BFF7A0979F5
:10031E00FA7D0F7F010209B6E51EFB3395E0FA75F3
:0A032E000C017D0F7F01120A14225A
:10073100120A73120003120A317BFF7A0979FC7DD8
:10074100017F011209B67BFF7A0A79057D0A7F01D3
:100751001209B67BFF7A0A790B7D017F021209B675
:100761001203381207948F24E524B40114E5227092
:1007710005752201800BE522B40106E4F52212037E
:1007810038E5221460080470DA1206B780D5120029
:030791000E80D007
:03000B000208D90F
:0908D900C0E0C0D075D000C007DA
:1008E200758A18758CFC0520E5207002051FC394DB
:1008F200F4E51F94014012751F00752000E5237076
:09090200047F0180027F008F23B5
:07090B00D007D0D0D0E0328C
:060A8700C2A58F80D2A77A
:080A8D007F027EEFDEFEDFFCBC
:010A9500223E
:0A0A9600C2A6120A87C2A7020A8D49
:1009D900CFCDCFCECCCE1205137C007D0A120513E4
:0409E900ED2430FFCA
:0A09ED00D2A6120A87C2A7020A8DE3
:100A4800AE07BE0104ED148006BE0209ED243F4442
:060A580080FF120A962245
:100A73007F38120A967F0C120A967F06120A967F17
:040A830001020A96CC
:0A0AA000AC03120A48AF040209ED8E
:0609B6008B088A09890A82
:1009BC00120A48E4FDAB08AA09A90A8D82758300C6
:0C09CC001204D4FF60061209ED0D80E952
:0109D80022FC
:0C0983007F0AEA24FFFDE434FFFC7E0044
:08098F008E0D8F0E8C0F8D10F0
:100997007F017E00E4FBEBC39510E50F6480F874DC
:0E09A7008098500AAC0DAD0E1205010B80E8D1
:0109B500221F
:040A14008A0A8B0BB4
:100A1800120A48AA0CEAD39400400D120983AC0AC2
:080A2800AD0B1209D91A80ED93
:010A300022A3
:10089F00120A48C3EA64809480400B7F2B1209ED43
:1008AF008A168B17800E7F2D1209EDC3E49BF51767
:1008BF00E49AF516AA15EAD39400400D120983ACF9
:0908CF0016AD171209D91A80EDCB
:0108D80022FD
:040912008A278B287D
:10091600120A48AA29EAD3940040297F10120985B1
:10092600AC27AD28CFCDCFCECCCE120513EF540FCA
:10093600FEC3940AEE5004243080022437FF1209C5
:04094600ED1A80D155
:01094A00228A
:04094B008A2C8B2D3A
:10094F00120A48AA2EEAD394004028EA24FFFDE4B5
:10095F0034FFFC7F027E0012098FAC2CAD2DCFCD62
:10096F00CFCECCCE120513EF54012430FF1209ED78
:03097F001A80D209
:010982002252
:090AAA000718040B11173B370378
:05000300C2B5C2B622E7
:0507F5002DFDEE3CFCAF
:0607FA008C088D09AB071D
:10080000D2B5E4FD7E007401A805088005C333CE8F
:1008100033CED8F9FFEBF582EF558224FF92B4D2A4
:10082000B6C2B60DBD08DDE4FD7E007401A8050862
:100830008005C333CE33CED8F9FFE5085EFEE50967
:100840005F4E24FF92B4D2B6C2B60DBD08DBC2B56E
:010850002285
:02085100AD07F1
:10085300E4F9D2B5430501FB7E007401A8030880C7
:1008630005C333CE33CED8F9FFEDF582EF5582249D
:10087300FF92B4C2B6D2B60BBB08DDE4FBD2B6C25C
:10088300B630B40DA8037401088002C333D8FC4208
:0B089300010BBB08E8C2B5C2B4AF0106
:01089E002237
:10033800E4FDFC7F8E1207FAE51875F00A1204B284
:10034800FF3395E0FEEFC4F8540FC868FFEEC454BD
:10035800F048FEE51875F00A1204B2ADF0ED3395D9
:10036800E0FCEF7F8C1207F5E51975F00A1204B26C
:10037800FF3395E0FEEFC4F8540FC868FFEEC4548D
:10038800F048FEE51975F00A1204B2ADF0ED3395A8
:10039800E0FCEF7F881207F5E51A75F00A1204B23F
:1003A800FF3395E0FEEFC4F8540FC868FFEEC4545D
:1003B800F048FEE51A75F00A1204B2ADF0ED339577
:1003C800E0FCEF2DFDEE3CFC7F861207FAE51B757D
:1003D800F00A1204B2FF3395E0FEEFC4F8540FC8D8
:1003E80068FFEEC454F048FEE51B75F00A1204B22B
:1003F800ADF0ED3395E0FCEF2DFDEE3CFC7F841273
:1004080007FAE51C75F00A1204B2FF3395E0FEEF17
:10041800C4F8540FC868FFEEC454F048FEE51C75D4
:10042800F00A1204B2ADF0ED3395E0FCEF2DFDEECD
:100438003CFC7F821207FAE51D75F00A1204B2FF30
:100448003395E0FEEFC4F8540FC868FFEEC454F0CB
:1004580048FEE51D75F00A1204B2ADF0ED3395E0E3
:10046800FCEF2DFDEE3CFC7F801207FAE51E75F0CF
:100478000A1204B2FF3395E0FEEFC4F8540FC868BF
:10048800FFEEC454F048FEE51E75F00A1204B2AD42
:10049800F0ED3395E0FCEF2DFDEE3CFC7F8A120772
:0A04A800FA7D807C007F8E0207FAC7
:10059E007F8C120851EFC4540F75F00AA4FEEF546D
:1005AE000F2EF5187F88120851EFC4540F75F00AFC
:1005BE00A4FEEF540F2EF5197F86120851EFC45486
:1005CE000F75F00AA4FEEF540F2EF51A7F84120851
:1005DE0051EFC4540F75F00AA4FEEF540F2EF51B05
:1005EE007F82120851EFC4540F75F00AA4FEEF5427
:1005FE000F2EF51C7F80120851EFC4540F75F00AB0
:10060E00A4FEEF540F2EF51D7F8A120851EFC4542D
:0C061E000F75F00AA4FEEF540F2EF51E1D
:01062A0022AD
:100A5E00EF1FAC0670011E4C600A7D027CEFDCFEBF
:040A6E00DDFC80EC3F
:010A72002261
:10079400E4F50820B1137F14FE120A5E30B1FD7F28
:1007A400147E00120A5E75080120B0147F147E00C6
:1007B400120A5E30B0FD7F147E00120A5E750802D4
:1007C40020B2147F147E00120A5E30B2FD7F147EC4
:1007D40000120A5E75080320B3147F147E00120A07
:1007E4005E30B3FD7F147E00120A5E750804AF0804
:0107F40022E2
:100A31005389F0438901758A18758CFCC28DD28C5B
:070A4100D2A9D2AFC2B92215
:0300000002062BCA
:0C062B00787FE4F6D8FD75812E0206727F
:1004B200C2D530F707B2D563F0FF05F030E70CB2D2
:1004C200D5F4048463F0FF05F080018430D502F492
:0204D200042202
:1004D400BB010CE58229F582E5833AF583E02250DD
:1004E40006E92582F8E622BBFE06E92582F8E22227
:0D04F400E58229F582E5833AF583E4932241
:10050100EF8DF0A4A8F0CF8CF0A428CE8DF0A42E0E
:02051100FE22C8
:10051300BC000BBE0029EF8DF084FFADF022E4CCCC
:10052300F875F008EF2FFFEE33FEEC33FCEE9DEC95
:10053300984005FCEE9DFE0FD5F0E9E4CEFD22EDDB
:10054300F8F5F0EE8420D21CFEADF075F008EF2F25
:10055300FFED33FD4007985006D5F0F222C398FD16
:050563000FD5F0EA22B3
:10056800C2D5EC30E709B2D5E4C39DFDE49CFCEEAE
:1005780030E715B2D5E4C39FFFE49EFE120513C30E
:10058800E49DFDE49CFC800312051330D507C3E409
:060598009FFFE49EFE221D
:10063700020731E493A3F8E493A34003F68001F2A1
:1006470008DFF48029E493A3F85407240CC8C333C4
:10065700C4540F4420C8834004F456800146F6DF93
:10066700E4800B0102040810204080900AAAE47E6F
:10067700019360BCA3FF543F30E509541FFEE49388
:10068700A360010ECF54C025E060A840B8E493A34F
:10069700FAE493A3F8E493A3C8C582C8CAC583CA7A
:1006A700F0A3C8C582C8CAC583CADFE9DEE780BE32
:010AB3000042
:00000001FF
