:03000000020003F8
:0C000300787FE4F6D8FD75812702004AE2
:10015800202008003F0006005B004F0066006D008D
:100168007D0007007F006F0077007C0039005E008B
:030178007900719A
:10017C00EF1FAC0670011E4C600A7D027CEFDCFEAA
:04018C00DDFC80EC2A
:01019000224C
:04008F007C007E0073
:10009300EE705BEF14B4080050549000AB75F0039E
:1000A300A4C58325F0C583730200C30200C7020001
:1000B300CB0200CF0200D30200DB0200E30200EB1D
:1000C300C2A4800EC2A48012C2A48016C2A4801A45
:1000D300D2A4C2A3C2A28016D2A4C2A3D2A2800E6B
:1000E300D2A4D2A3C2A28006D2A4D2A3D2A2ED25C7
:1000F300E02408F808E6F5807F017E0012017CE425
:03010300F5802262
:100106007D017F0112008F7D027F0212008F7D0329
:100116007C007F037E001200937D047C007F047EBA
:10012600001200937D057C007F057E001200937D02
:10013600067C007F067E001200937D077C007F0709
:100146007E001200937D087C007F087E00120093DB
:0201560080AE79
:10000F00020106E493A3F8E493A34003F68001F200
:10001F0008DFF48029E493A3F85407240CC8C333F2
:10002F00C4540F4420C8834004F456800146F6DFC1
:10003F00E4800B0102040810204080900158E47EF8
:10004F00019360BCA3FF543F30E509541FFEE493B6
:10005F00A360010ECF54C025E060A840B8E493A37D
:10006F00FAE493A3F8E493A3C8C582C8CAC583CAA8
:10007F00F0A3C8C582C8CAC583CADFE9DEE780BE60
:01017B000083
:00000001FF
