:10051F0020202D20202D20200020203A20203A209E
:08052F0020005765656B3A00DE
:1000ED0012054D12058E7BFF7A05791F7D017F016B
:1000FD001204C17BFF7A0579287D017F021204C1AC
:10010D007BFF7A0579317D0A7F011204C11200034C
:10011D0012021FE518FB7A00750C027D017F01129A
:10012D000502E519FB7A00750C027D047F011205AD
:10013D0002E51AFB7A00750C027D077F011205029C
:10014D00E51BFB7A00750C027D017F02120502E5AD
:10015D001CFB7A00750C027D047F02120502E51D61
:10016D00FB7A00750C027D077F02120502E51EFB6E
:0E017D007A00750C017D0F7F01120502809241
:06056100C2A58F80D2A7A5
:080567007F027EEFDEFEDFFCE7
:01056F002269
:0A057000C2A6120561C2A7020567CA
:1004E400CFCDCFCECCCE1201CA7C007D0A1201CA78
:0404F400ED2430FFC4
:0A04F800D2A6120561C2A702056733
:10053700AE07BE0104ED148006BE0209ED243F4458
:0605470080FF1205702286
:10054D007F381205707F0C1205707F061205707FC3
:04055D000102057022
:0A057A00AC03120537AF040204F8C9
:0604C1008B088A09890A7C
:1004C700120537E4FDAB08AA09A90A8D82758300D6
:0C04D70012018BFF60061204F80D80E992
:0104E30022F6
:0C048E007F0AEA24FFFDE434FFFC7E003E
:08049A008E0D8F0E8C0F8D10EA
:1004A2007F017E00E4FBEBC39510E50F6480F874D6
:0E04B2008098500AAC0DAD0E1201B80B80E818
:0104C0002219
:040502008A0A8B0BCB
:10050600120537AA0CEAD39400400D12048EAC0AE9
:08051600AD0B1204E41A80EDA4
:01051E0022BA
:1003E300120537C3EA64809480400B7F2B1204F814
:1003F3008A168B17800E7F2D1204F8C3E49BF51722
:10040300E49AF516AA15EAD39400400D12048EACB3
:0904130016AD171204E41A80ED85
:01041C0022BD
:04041D008A218B2283
:10042100120537AA23EAD3940040297F10120490C1
:10043100AC21AD22CFCDCFCECCCE1201CAEF540F1D
:10044100FEC3940AEE5004243080022437FF1204C4
:04045100F81A80D144
:010455002284
:040456008A268B2740
:10045A00120537AA28EAD394004028EA24FFFDE4CB
:10046A0034FFFC7F027E0012049AAC26AD27CFCD62
:10047A00CFCECCCE1201CAEF54012430FF1204F8B9
:03048A001A80D203
:01048D00224C
:090584000718040B12000000042A
:05058E00C2B5C2B62257
:0603380025F0FDEC3EFC87
:06033E008C088D09AB07DD
:10034400D2B5E4FD7E007401A805088005C333CE50
:1003540033CED8F9FFEBF582EF558224FF92B4D265
:10036400B6C2B60DBD08DDE4FD7E007401A8050823
:100374008005C333CE33CED8F9FFE5085EFEE50928
:100384005F4E24FF92B4D2B6C2B60DBD08DBC2B52F
:010394002246
:02039500AD07B2
:10039700E4F9D2B5430501FB7E007401A803088088
:1003A70005C333CE33CED8F9FFEDF582EF5582245E
:1003B700FF92B4C2B6D2B60BBB08DDE4FBD2B6C21D
:1003C700B630B40DA8037401088002C333D8FC42C9
:0B03D700010BBB08E8C2B5C2B4AF01C7
:0103E20022F8
:10000300E4FDFC7F8E12033EE51875F00A8475F05B
:1000130010A4FFAEF0E51875F00A84EF7F8C12038D
:1000230038E51975F00A8475F010A4FFAEF0E519F0
:1000330075F00A847C00EF7F88120338E51A75F0A7
:100043000A8475F010A4FFAEF0E51A75F00A847CFB
:1000530000EF25F0FDEC3EFC7F8612033EE51B75A9
:10006300F00A8475F010A4FFAEF0E51B75F00A8466
:100073007C00EF25F0FDEC3EFC7F8412033EE51C83
:1000830075F00A8475F010A4FFAEF0E51C75F00A54
:10009300847C00EF25F0FDEC3EFC7F8212033EE5FD
:1000A3001D75F00A8475F010A4FFAEF0E51D75F020
:1000B3000A847C00EF25F0FDEC3EFC7F8012033EBA
:1000C300E51E75F00A8475F010A4FFAEF0E51E7509
:1000D300F00A847C00EF25F0FDEC3EFC7F8A1203DE
:0A00E3003E7D807C007F8E02033E0C
:10021F007F8C120395EFC4540F75F00AA4FEEF54B0
:10022F000F2EF5187F88120395EFC4540F75F00A3F
:10023F00A4FEEF540F2EF5197F86120395EFC454C9
:10024F000F75F00AA4FEEF540F2EF51A7F841203D8
:10025F0095EFC4540F75F00AA4FEEF540F2EF51B43
:10026F007F82120395EFC4540F75F00AA4FEEF546A
:10027F000F2EF51C7F80120395EFC4540F75F00AF3
:10028F00A4FEEF540F2EF51D7F8A120395EFC45471
:0C029F000F75F00AA4FEEF540F2EF51EA0
:0102AB002230
:030000000202AC4D
:0C02AC00787FE4F6D8FD7581280202F38B
:10018B00BB010CE58229F582E5833AF583E0225029
:10019B0006E92582F8E622BBFE06E92582F8E22273
:0D01AB00E58229F582E5833AF583E493228D
:1001B800EF8DF0A4A8F0CF8CF0A428CE8DF0A42E5B
:0201C800FE2215
:1001CA00BC000BBE0029EF8DF084FFADF022E4CC19
:1001DA00F875F008EF2FFFEE33FEEC33FCEE9DECE2
:1001EA00984005FCEE9DFE0FD5F0E9E4CEFD22ED28
:1001FA00F8F5F0EE8420D21CFEADF075F008EF2F72
:10020A00FFED33FD4007985006D5F0F222C398FD62
:05021A000FD5F0EA22FF
:1002B8000200EDE493A3F8E493A34003F68001F26F
:1002C80008DFF48029E493A3F85407240CC8C33347
:1002D800C4540F4420C8834004F456800146F6DF16
:1002E800E4800B0102040810204080900584E47E1D
:1002F800019360BCA3FF543F30E509541FFEE4930B
:10030800A360010ECF54C025E060A840B8E493A3D1
:10031800FAE493A3F8E493A3C8C582C8CAC583CAFC
:10032800F0A3C8C582C8CAC583CADFE9DEE780BEB4
:01058D00006D
:00000001FF
