:10016E001201FFE4F52812010D8F29E529640170B3
:10017E0023052B532B03E52B7002F528E52BB40139
:10018E0003752832E52BB4020375284BE52BB40317
:10019E0003752864E52BFD7C007F087E0012009A13
:0201AE0080C40B
:03000B000201B03F
:1001B000C0E0C0F0C0D0758A9C758CFF052AE52A86
:1001C00075F0648485F02AE52AC395285004D290FE
:0B01D0008002C290D0D0D0F0D0E0320E
:10021600EF1FAC0670011E4C600A7D027CEFDCFE0F
:04022600DDFC80EC8F
:01022A0022B1
:10010D00E4F52C20B1137F14FE12021630B1FD7FE1
:10011D00147E00120216752C0120B0147F147E007F
:10012D0012021630B0FD7F147E00120216752C02DD
:10013D0020B2147F147E0012021630B2FD7F147EA1
:10014D0000120216752C0320B3147F147E001202C8
:10015D001630B3FD7F147E00120216752C04AF2CE1
:01016D00226F
:1001DB00202008003F0006005B004F0066006D000A
:1001EB007D0007007F006F0077007C0039005E0008
:0301FB0079007117
:10009A00EE705BEF14B4080050549000B275F00390
:1000AA00A4C58325F0C583730200CA0200CE0200EC
:1000BA00D20200D60200DA0200E20200EA0200F2EC
:1000CA00C2A4800EC2A48012C2A48016C2A4801A3E
:1000DA00D2A4C2A3C2A28016D2A4C2A3D2A2800E64
:1000EA00D2A4D2A3C2A28006D2A4D2A3D2A2ED25C0
:1000FA00E02408F808E6F5807F017E00120216E483
:03010A00F580225B
:1001FF005389F0438901758A9C758CFFC28DD28C0F
:07020F00D2A9D2AFC2B9224F
:0300000002000EED
:0C000E00787FE4F6D8FD75812C020055C7
:10001A0002016EE493A3F8E493A34003F68001F28D
:10002A0008DFF48029E493A3F85407240CC8C333E7
:10003A00C4540F4420C8834004F456800146F6DFB6
:10004A00E4800B01020408102040809001DBE47E6A
:10005A00019360BCA3FF543F30E509541FFEE493AB
:10006A00A360010ECF54C025E060A840B8E493A372
:10007A00FAE493A3F8E493A3C8C582C8CAC583CA9D
:10008A00F0A3C8C582C8CAC583CADFE9DEE780BE55
:0101FE000000
:00000001FF
