:0602D400C2A58F80D2A735
:0802DA007F027EEFDEFEDFFC77
:0102E20022F9
:0A02EF00C2A61202D4C2A70202DA6E
:10025800CFCDCFCECCCE12004D7C007D0A12004D02
:04026800ED2430FF52
:0A026C00D2A61202D4C2A70202DAE1
:1002AA00AE07BE0104ED148006BE0209ED243F44E8
:0602BA0080FF1202EF229A
:1002C0007F381202EF7F0C1202EF7F061202EF7FDF
:0402D000010202EF36
:0A02F900AC031202AAAF0402026C6B
:060235008B088A09890A0A
:10023B001202AAE4FDAB08AA09A90A8D82758300F4
:0C024B0012000EFF600612026C0D80E92C
:010257002284
:0C0202007F0AEA24FFFDE434FFFC7E00CC
:08020E008E0D8F0E8C0F8D1078
:100216007F017E00E4FBEBC39510E50F6480F87464
:0E0226008098500AAC0DAD0E12003B0B80E824
:0102340022A7
:040276008A0A8B0B5A
:10027A001202AAAA0CEAD39400400D120202AC0A96
:08028A00AD0B1202581A80EDC1
:010292002249
:100157001202AAC3EA64809480400B7F2B12026CC0
:100167008A1E8B1F800E7F2D12026CC3E49BF51F26
:10017700E49AF51EAA1DEAD39400400D120202ACC0
:090187001EAD1F1202581A80ED92
:01019000224C
:040191008A228B2310
:100195001202AAAA24EAD3940040297F101202046D
:1001A500AC22AD23CFCDCFCECCCE12004DEF540F28
:1001B500FEC3940AEE5004243080022437FF120255
:0401C5006C1A80D15F
:0101C9002213
:0401CA008A278B28CD
:1001CE001202AAAA29EAD394004028EA24FFFDE4E9
:1001DE0034FFFC7F027E0012020EAC27AD28CFCD7D
:1001EE00CFCECCCE12004DEF54012430FF12026C54
:0301FE001A80D292
:0102010022DA
:100293005389F0438901758A18758CFCC28DD28C01
:0702A300D2A9D2AFC2B922BB
:09030300436C6F636B3A003A0091
:03000B000200A24E
:0400A200C0E0C0D02A
:1000A600758A18758CFC0512E51270020511C39449
:1000B600E8E5119403403C7511007512000514E53E
:1000C6001470020513643C45137028F513F51405E6
:1000D60018E51870020517643C45177016F517F5F4
:1000E600180516E51670020515641845157004F511
:0300F60015F516E7
:0500F900D0D0D0E03280
:1000FE001202931202C07BFF7A0379037D017F0106
:10010E001202357BFF7A03790A7D037F02120235D4
:10011E007BFF7A03790A7D067F02120235750C0287
:10012E00AB16AA157D017F02120276750C02AB1872
:10013E00AA177D047F02120276750C02AB14AA1365
:09014E007D077F0212027680D4C5
:030000000202E316
:0C02E300787FE4F6D8FD7581290200FE4A
:10000E00BB010CE58229F582E5833AF583E02250A7
:10001E0006E92582F8E622BBFE06E92582F8E222F1
:0D002E00E58229F582E5833AF583E493220B
:10003B00EF8DF0A4A8F0CF8CF0A428CE8DF0A42ED9
:02004B00FE2293
:10004D00BC000BBE0029EF8DF084FFADF022E4CC97
:10005D00F875F008EF2FFFEE33FEEC33FCEE9DEC60
:10006D00984005FCEE9DFE0FD5F0E9E4CEFD22EDA6
:10007D00F8F5F0EE8420D21CFEADF075F008EF2FF0
:10008D00FFED33FD4007985006D5F0F222C398FDE1
:05009D000FD5F0EA227E
:00000001FF
