:0B0417004D61747269784B657921001B
:100332001203E87BFF7A0479177D017F0112035FC4
:100342001200038E228F23E523452260F3750C02EF
:0D035200AB23AA227D017F021203A080E3ED
:1003D300EF1FAC0670011E4C600A7D027CEFDCFE51
:0403E300DDFC80ECD1
:0103E70022F3
:0603FC00C2A58F80D2A70C
:080402007F027EEFDEFEDFFC4D
:01040A0022CF
:0A042200C2A61203FCC2A7020402E6
:10038200CFCDCFCECCCE1201FF7C007D0A1201FF71
:04039200ED2430FF27
:0A039600D2A61203FCC2A702040263
:1003BD00AE07BE0104ED148006BE0209ED243F44D4
:0603CD0080FF1204222251
:1003E8007F381204227F0C1204227F061204227F17
:0403F80001020422D8
:0A042C00AC031203BDAF04020396F7
:06035F008B088A09890ADF
:100365001203BDE4FDAB08AA09A90A8D82758300B5
:0C0375001201C0FF60061203960D80E923
:010381002259
:0C02FF007F0AEA24FFFDE434FFFC7E00CF
:08030B008E0D8F0E8C0F8D107A
:100313007F017E00E4FBEBC39510E50F6480F87466
:0E0323008098500AAC0DAD0E1201ED0B80E873
:0103310022A9
:0403A0008A0A8B0B2F
:1003A4001203BDAA0CEAD39400400D1202FFAC0A5A
:0803B400AD0B1203821A80ED6B
:0103BC00221E
:100254001203BDC3EA64809480400B7F2B12039683
:100264008A168B17800E7F2D120396C3E49BF51715
:10027400E49AF516AA15EAD39400400D1202FFACD5
:0902840016AD171203821A80ED79
:01028D00224E
:04028E008A1A8B1B22
:100292001203BDAA1CEAD3940040297F1012030165
:1002A200AC1AAD1BCFCDCFCECCCE1201FFEF540F87
:1002B200FEC3940AEE5004243080022437FF120356
:0402C200961A80D137
:0102C6002215
:0402C7008A1F8B20DF
:1002CB001203BDAA21EAD394004028EA24FFFDE4DF
:1002DB0034FFFC7F027E0012030BAC1FAD20CFCD91
:1002EB00CFCECCCE1201FFEF54012430FF12039678
:0302FB001A80D294
:0102FE0022DD
:10000300E4F508F5097590FFC2932097167F14FE57
:100013001203D33097FD7F147E001203D3750800BB
:100023007509012096177F147E001203D33096FDC5
:100033007F147E001203D3750800750905209517F8
:100043007F147E001203D33095FD7F147E001203CC
:10005300D37508007509092094177F147E001203D5
:10006300D33094FD7F147E001203D3750800750905
:100073000D7590FFC2922097177F147E001203D351
:100083003097FD7F147E001203D3750800750902B3
:100093002096177F147E001203D33096FD7F147EC3
:1000A300001203D37508007509062095177F147E87
:1000B300001203D33095FD7F147E001203D375081D
:1000C3000075090A2094177F147E001203D330941D
:1000D300FD7F147E001203D375080075090E759019
:1000E300FFC2912097177F147E001203D33097FD30
:1000F3007F147E001203D375080075090320961739
:100103007F147E001203D33096FD7F147E0012030A
:10011300D37508007509072095177F147E00120315
:10012300D33095FD7F147E001203D3750800750943
:100133000B2094177F147E001203D33094FD7F1499
:100143007E001203D375080075090F7590FFC290E6
:100153002097177F147E001203D33097FD7F147E00
:10016300001203D37508007509042096177F147EC7
:10017300001203D33096FD7F147E001203D375085B
:10018300007509082095177F147E001203D330955C
:10019300FD7F147E001203D375080075090C2094AB
:1001A300177F147E001203D33094FD7F147E001258
:0C01B30003D3750800750910AE08AF09F1
:0101BF00221D
:0300000002040BEC
:0C040B00787FE4F6D8FD758123020332EF
:1001C000BB010CE58229F582E5833AF583E02250F4
:1001D00006E92582F8E622BBFE06E92582F8E2223E
:0D01E000E58229F582E5833AF583E4932258
:1001ED00EF8DF0A4A8F0CF8CF0A428CE8DF0A42E26
:0201FD00FE22E0
:1001FF00BC000BBE0029EF8DF084FFADF022E4CCE4
:10020F00F875F008EF2FFFEE33FEEC33FCEE9DECAC
:10021F00984005FCEE9DFE0FD5F0E9E4CEFD22EDF2
:10022F00F8F5F0EE8420D21CFEADF075F008EF2F3C
:10023F00FFED33FD4007985006D5F0F222C398FD2D
:05024F000FD5F0EA22CA
:00000001FF
