:03000000020003F8
:0C000300787FE4F6D8FD75812702004AE2
:100102007D017C007F017E0012008F7D027C007FDA
:10011200027E0012008F7D037C007F037E001200AE
:100122008F7D047C007F047E0012008F7D057C00A1
:100132007F057E0012008F7D067C007F067E001206
:10014200008F7D077C007F077E0012008F7D087C78
:0A015200007F087E0012008F80A6D7
:10018000EF1FAC0670011E4C600A7D027CEFDCFEA6
:04019000DDFC80EC26
:010194002248
:10015C00202008003F0006005B004F0066006D0089
:10016C007D0007007F006F0077007C0039005E0087
:03017C0079007196
:10008F00EE705BEF14B4080050549000A775F003A6
:10009F00A4C58325F0C583730200BF0200C302000D
:1000AF00C70200CB0200CF0200D70200DF0200E739
:1000BF00C2A4800EC2A48012C2A48016C2A4801A49
:1000CF00D2A4C2A3C2A28016D2A4C2A3D2A2800E6F
:1000DF00D2A4D2A3C2A28006D2A4D2A3D2A2ED25CB
:1000EF00E02408F808E6F5807F017E00120180E425
:0300FF00F5802267
:10000F00020102E493A3F8E493A34003F68001F204
:10001F0008DFF48029E493A3F85407240CC8C333F2
:10002F00C4540F4420C8834004F456800146F6DFC1
:10003F00E4800B010204081020408090015CE47EF4
:10004F00019360BCA3FF543F30E509541FFEE493B6
:10005F00A360010ECF54C025E060A840B8E493A37D
:10006F00FAE493A3F8E493A3C8C582C8CAC583CAA8
:10007F00F0A3C8C582C8CAC583CADFE9DEE780BE60
:01017F00007F
:00000001FF
